{
  "_format": "hh-sol-artifact-1",
  "contractName": "setData",
  "sourceName": "contracts/setdata.sol",
  "abi": [
    {
      "inputs": [
        {
          "internalType": "address",
          "name": "sellOwnerAddress",
          "type": "address"
        },
        {
          "internalType": "uint256",
          "name": "_JolamanType",
          "type": "uint256"
        }
      ],
      "name": "SellOwnedToken",
      "outputs": [],
      "stateMutability": "nonpayable",
      "type": "function"
    },
    {
      "inputs": [
        {
          "internalType": "uint256",
          "name": "",
          "type": "uint256"
        }
      ],
      "name": "SellingJol",
      "outputs": [
        {
          "internalType": "bool",
          "name": "",
          "type": "bool"
        }
      ],
      "stateMutability": "view",
      "type": "function"
    },
    {
      "inputs": [
        {
          "internalType": "uint256",
          "name": "",
          "type": "uint256"
        }
      ],
      "name": "StakedJolamanType",
      "outputs": [
        {
          "internalType": "bool",
          "name": "",
          "type": "bool"
        }
      ],
      "stateMutability": "view",
      "type": "function"
    },
    {
      "inputs": [],
      "name": "_owner",
      "outputs": [
        {
          "internalType": "address",
          "name": "",
          "type": "address"
        }
      ],
      "stateMutability": "view",
      "type": "function"
    },
    {
      "inputs": [
        {
          "internalType": "address",
          "name": "",
          "type": "address"
        },
        {
          "internalType": "uint256",
          "name": "",
          "type": "uint256"
        }
      ],
      "name": "exceptSellOwnedJolamanType",
      "outputs": [
        {
          "internalType": "uint256",
          "name": "",
          "type": "uint256"
        }
      ],
      "stateMutability": "view",
      "type": "function"
    },
    {
      "inputs": [
        {
          "internalType": "address",
          "name": "_tokenOwner",
          "type": "address"
        }
      ],
      "name": "getExceptSellOwnedJolamanType",
      "outputs": [
        {
          "internalType": "uint256[]",
          "name": "",
          "type": "uint256[]"
        }
      ],
      "stateMutability": "view",
      "type": "function"
    },
    {
      "inputs": [
        {
          "internalType": "uint256",
          "name": "_JolType",
          "type": "uint256"
        }
      ],
      "name": "getJolamanTokenTypeOfOnwer",
      "outputs": [
        {
          "internalType": "address",
          "name": "",
          "type": "address"
        }
      ],
      "stateMutability": "view",
      "type": "function"
    },
    {
      "inputs": [],
      "name": "getLatestJolamanData",
      "outputs": [
        {
          "internalType": "uint256",
          "name": "",
          "type": "uint256"
        }
      ],
      "stateMutability": "view",
      "type": "function"
    },
    {
      "inputs": [],
      "name": "getOwner",
      "outputs": [
        {
          "internalType": "address",
          "name": "",
          "type": "address"
        }
      ],
      "stateMutability": "view",
      "type": "function"
    },
    {
      "inputs": [
        {
          "internalType": "uint256",
          "name": "_JolamanType",
          "type": "uint256"
        }
      ],
      "name": "getSellingJolTypeToBool",
      "outputs": [
        {
          "internalType": "bool",
          "name": "",
          "type": "bool"
        }
      ],
      "stateMutability": "view",
      "type": "function"
    },
    {
      "inputs": [
        {
          "internalType": "uint256",
          "name": "_JolamanType",
          "type": "uint256"
        }
      ],
      "name": "getStakedJolamanType",
      "outputs": [
        {
          "internalType": "bool",
          "name": "",
          "type": "bool"
        }
      ],
      "stateMutability": "view",
      "type": "function"
    },
    {
      "inputs": [
        {
          "internalType": "uint256",
          "name": "_TokenId",
          "type": "uint256"
        }
      ],
      "name": "getTokenOwner",
      "outputs": [
        {
          "internalType": "address",
          "name": "",
          "type": "address"
        }
      ],
      "stateMutability": "view",
      "type": "function"
    },
    {
      "inputs": [],
      "name": "getTotalJolamanData",
      "outputs": [
        {
          "internalType": "uint256[]",
          "name": "",
          "type": "uint256[]"
        }
      ],
      "stateMutability": "view",
      "type": "function"
    },
    {
      "inputs": [
        {
          "internalType": "address",
          "name": "_ownerAddress",
          "type": "address"
        }
      ],
      "name": "getTotalOwnedTokens",
      "outputs": [
        {
          "internalType": "uint256[]",
          "name": "",
          "type": "uint256[]"
        }
      ],
      "stateMutability": "view",
      "type": "function"
    },
    {
      "inputs": [
        {
          "internalType": "uint256",
          "name": "joldata",
          "type": "uint256"
        }
      ],
      "name": "gettypeToId",
      "outputs": [
        {
          "internalType": "uint256",
          "name": "",
          "type": "uint256"
        }
      ],
      "stateMutability": "view",
      "type": "function"
    },
    {
      "inputs": [],
      "name": "initialize",
      "outputs": [],
      "stateMutability": "nonpayable",
      "type": "function"
    },
    {
      "inputs": [
        {
          "internalType": "uint256",
          "name": "",
          "type": "uint256"
        }
      ],
      "name": "jolamanTokenTypeOfOwner",
      "outputs": [
        {
          "internalType": "address",
          "name": "",
          "type": "address"
        }
      ],
      "stateMutability": "view",
      "type": "function"
    },
    {
      "inputs": [
        {
          "internalType": "address",
          "name": "_tokenOwner",
          "type": "address"
        },
        {
          "internalType": "uint256",
          "name": "_JolType",
          "type": "uint256"
        }
      ],
      "name": "setDeleteExceptSellOwnedJolamanType",
      "outputs": [],
      "stateMutability": "nonpayable",
      "type": "function"
    },
    {
      "inputs": [
        {
          "internalType": "address",
          "name": "_tokenOwner",
          "type": "address"
        },
        {
          "internalType": "uint256",
          "name": "_JolType",
          "type": "uint256"
        }
      ],
      "name": "setExceptSellOwnedJolamanType",
      "outputs": [],
      "stateMutability": "nonpayable",
      "type": "function"
    },
    {
      "inputs": [
        {
          "internalType": "uint256",
          "name": "_JolType",
          "type": "uint256"
        },
        {
          "internalType": "address",
          "name": "_tokenOwner",
          "type": "address"
        }
      ],
      "name": "setJolamanTokenTypeOfOwner",
      "outputs": [],
      "stateMutability": "nonpayable",
      "type": "function"
    },
    {
      "inputs": [
        {
          "internalType": "uint256",
          "name": "_JolamanType",
          "type": "uint256"
        },
        {
          "internalType": "bool",
          "name": "boolean",
          "type": "bool"
        }
      ],
      "name": "setSellingJolTypeToBool",
      "outputs": [],
      "stateMutability": "nonpayable",
      "type": "function"
    },
    {
      "inputs": [
        {
          "internalType": "uint256",
          "name": "_JolamanType",
          "type": "uint256"
        },
        {
          "internalType": "bool",
          "name": "boolean",
          "type": "bool"
        }
      ],
      "name": "setStakedJolamanType",
      "outputs": [],
      "stateMutability": "nonpayable",
      "type": "function"
    },
    {
      "inputs": [
        {
          "internalType": "uint256",
          "name": "_TokenId",
          "type": "uint256"
        },
        {
          "internalType": "address",
          "name": "_to",
          "type": "address"
        }
      ],
      "name": "setTokenOwner",
      "outputs": [],
      "stateMutability": "nonpayable",
      "type": "function"
    },
    {
      "inputs": [
        {
          "internalType": "uint256",
          "name": "_JolType",
          "type": "uint256"
        }
      ],
      "name": "setTotalJolamanData",
      "outputs": [],
      "stateMutability": "nonpayable",
      "type": "function"
    },
    {
      "inputs": [
        {
          "internalType": "address",
          "name": "_tokenOwner",
          "type": "address"
        },
        {
          "internalType": "uint256",
          "name": "_JolType",
          "type": "uint256"
        }
      ],
      "name": "setTotalOwnedTokens",
      "outputs": [],
      "stateMutability": "nonpayable",
      "type": "function"
    },
    {
      "inputs": [
        {
          "internalType": "uint256",
          "name": "_joldata",
          "type": "uint256"
        },
        {
          "internalType": "uint256",
          "name": "_tokenId",
          "type": "uint256"
        }
      ],
      "name": "setTypeToId",
      "outputs": [],
      "stateMutability": "nonpayable",
      "type": "function"
    },
    {
      "inputs": [
        {
          "internalType": "uint256",
          "name": "",
          "type": "uint256"
        }
      ],
      "name": "tokenOwner",
      "outputs": [
        {
          "internalType": "address",
          "name": "",
          "type": "address"
        }
      ],
      "stateMutability": "view",
      "type": "function"
    },
    {
      "inputs": [
        {
          "internalType": "uint256",
          "name": "",
          "type": "uint256"
        }
      ],
      "name": "totalJolamanData",
      "outputs": [
        {
          "internalType": "uint256",
          "name": "",
          "type": "uint256"
        }
      ],
      "stateMutability": "view",
      "type": "function"
    },
    {
      "inputs": [
        {
          "internalType": "address",
          "name": "",
          "type": "address"
        },
        {
          "internalType": "uint256",
          "name": "",
          "type": "uint256"
        }
      ],
      "name": "totalOwnedTokens",
      "outputs": [
        {
          "internalType": "uint256",
          "name": "",
          "type": "uint256"
        }
      ],
      "stateMutability": "view",
      "type": "function"
    },
    {
      "inputs": [
        {
          "internalType": "uint256",
          "name": "",
          "type": "uint256"
        }
      ],
      "name": "typeToId",
      "outputs": [
        {
          "internalType": "uint256",
          "name": "",
          "type": "uint256"
        }
      ],
      "stateMutability": "view",
      "type": "function"
    }
  ],
  "bytecode": "0x608060405234801561001057600080fd5b5061163c806100206000396000f3fe608060405234801561001057600080fd5b50600436106101da5760003560e01c80639a944fdf11610104578063b7ec93fa116100a2578063e2bdb88011610071578063e2bdb880146105af578063ed14d640146105cb578063f1e0cb05146105e9578063fe43e1f014610619576101da565b8063b7ec93fa14610517578063ce8cceb014610533578063d5538b2714610563578063db12b45014610593576101da565b8063a5cd761f116100de578063a5cd761f1461047d578063a92ae38a146104ad578063b2bdfa7b146104c9578063b6fece2d146104e7576101da565b80639a944fdf14610415578063a137d91914610431578063a35b3d8914610461576101da565b806343d67fb21161017c57806350b959701161014b57806350b959701461038d5780638129fc1c146103bd578063893d20e8146103c757806390e41b6e146103e5576101da565b806343d67fb2146102f35780634401f9911461031157806345149f8d1461032d5780634df9de761461035d576101da565b80631d578013116101b85780631d5780131461024757806323eac4bd146102775780632f08480d146102935780634290482a146102c3576101da565b806316b2e21e146101df5780631b41b476146101fb5780631caaa48714610217575b600080fd5b6101f960048036038101906101f4919061120c565b610649565b005b6102156004803603810190610210919061124c565b6106b3565b005b610231600480360381019061022c919061128c565b610709565b60405161023e91906112c8565b60405180910390f35b610261600480360381019061025c919061128c565b61073c565b60405161026e91906112f2565b60405180910390f35b610291600480360381019061028c919061124c565b610754565b005b6102ad60048036038101906102a8919061120c565b6107aa565b6040516102ba91906112f2565b60405180910390f35b6102dd60048036038101906102d8919061130d565b6107db565b6040516102ea91906113f8565b60405180910390f35b6102fb610872565b60405161030891906113f8565b60405180910390f35b61032b6004803603810190610326919061120c565b6108ca565b005b6103476004803603810190610342919061128c565b610b01565b60405161035491906112f2565b60405180910390f35b6103776004803603810190610372919061128c565b610b1e565b6040516103849190611435565b60405180910390f35b6103a760048036038101906103a2919061128c565b610b3e565b6040516103b491906112c8565b60405180910390f35b6103c5610b7b565b005b6103cf610bd8565b6040516103dc91906112c8565b60405180910390f35b6103ff60048036038101906103fa919061130d565b610c01565b60405161040c91906113f8565b60405180910390f35b61042f600480360381019061042a919061128c565b610c98565b005b61044b6004803603810190610446919061128c565b610cc4565b6040516104589190611435565b60405180910390f35b61047b6004803603810190610476919061147c565b610ce4565b005b6104976004803603810190610492919061128c565b610d13565b6040516104a491906112c8565b60405180910390f35b6104c760048036038101906104c2919061120c565b610d50565b005b6104d1610dba565b6040516104de91906112c8565b60405180910390f35b61050160048036038101906104fc919061128c565b610dde565b60405161050e9190611435565b60405180910390f35b610531600480360381019061052c919061147c565b610e08565b005b61054d6004803603810190610548919061128c565b610e37565b60405161055a9190611435565b60405180910390f35b61057d6004803603810190610578919061120c565b610e61565b60405161058a91906112f2565b60405180910390f35b6105ad60048036038101906105a8919061120c565b610e92565b005b6105c960048036038101906105c491906114bc565b6110c9565b005b6105d36110e5565b6040516105e091906112f2565b60405180910390f35b61060360048036038101906105fe919061128c565b61111c565b60405161061091906112f2565b60405180910390f35b610633600480360381019061062e919061128c565b611140565b60405161064091906112c8565b60405180910390f35b600860008373ffffffffffffffffffffffffffffffffffffffff1673ffffffffffffffffffffffffffffffffffffffff1681526020019081526020016000208190806001815401808255809150506001900390600052602060002001600090919091909150555050565b806004600084815260200190815260200160002060006101000a81548173ffffffffffffffffffffffffffffffffffffffff021916908373ffffffffffffffffffffffffffffffffffffffff1602179055505050565b60016020528060005260406000206000915054906101000a900473ffffffffffffffffffffffffffffffffffffffff1681565b60056020528060005260406000206000915090505481565b806001600084815260200190815260200160002060006101000a81548173ffffffffffffffffffffffffffffffffffffffff021916908373ffffffffffffffffffffffffffffffffffffffff1602179055505050565b600260205281600052604060002081815481106107c657600080fd5b90600052602060002001600091509150505481565b6060600860008373ffffffffffffffffffffffffffffffffffffffff1673ffffffffffffffffffffffffffffffffffffffff16815260200190815260200160002080548060200260200160405190810160405280929190818152602001828054801561086657602002820191906000526020600020905b815481526020019060010190808311610852575b50505050509050919050565b606060038054806020026020016040519081016040528092919081815260200182805480156108c057602002820191906000526020600020905b8154815260200190600101908083116108ac575b5050505050905090565b60005b600260008473ffffffffffffffffffffffffffffffffffffffff1673ffffffffffffffffffffffffffffffffffffffff16815260200190815260200160002080549050811015610afc5781600260008573ffffffffffffffffffffffffffffffffffffffff1673ffffffffffffffffffffffffffffffffffffffff1681526020019081526020016000208281548110610969576109686114fc565b5b90600052602060002001541415610ae957600260008473ffffffffffffffffffffffffffffffffffffffff1673ffffffffffffffffffffffffffffffffffffffff1681526020019081526020016000206001600260008673ffffffffffffffffffffffffffffffffffffffff1673ffffffffffffffffffffffffffffffffffffffff16815260200190815260200160002080549050610a08919061155a565b81548110610a1957610a186114fc565b5b9060005260206000200154600260008573ffffffffffffffffffffffffffffffffffffffff1673ffffffffffffffffffffffffffffffffffffffff1681526020019081526020016000208281548110610a7557610a746114fc565b5b9060005260206000200181905550600260008473ffffffffffffffffffffffffffffffffffffffff1673ffffffffffffffffffffffffffffffffffffffff168152602001908152602001600020805480610ad257610ad161158e565b5b600190038181906000526020600020016000905590555b8080610af4906115bd565b9150506108cd565b505050565b600060056000838152602001908152602001600020549050919050565b60066020528060005260406000206000915054906101000a900460ff1681565b60006004600083815260200190815260200160002060009054906101000a900473ffffffffffffffffffffffffffffffffffffffff169050919050565b6001600060146101000a81548160ff021916908315150217905550336000806101000a81548173ffffffffffffffffffffffffffffffffffffffff021916908373ffffffffffffffffffffffffffffffffffffffff160217905550565b60008060009054906101000a900473ffffffffffffffffffffffffffffffffffffffff16905090565b6060600260008373ffffffffffffffffffffffffffffffffffffffff1673ffffffffffffffffffffffffffffffffffffffff168152602001908152602001600020805480602002602001604051908101604052809291908181526020018280548015610c8c57602002820191906000526020600020905b815481526020019060010190808311610c78575b50505050509050919050565b600381908060018154018082558091505060019003906000526020600020016000909190919091505550565b60076020528060005260406000206000915054906101000a900460ff1681565b806006600084815260200190815260200160002060006101000a81548160ff0219169083151502179055505050565b60006001600083815260200190815260200160002060009054906101000a900473ffffffffffffffffffffffffffffffffffffffff169050919050565b600260008373ffffffffffffffffffffffffffffffffffffffff1673ffffffffffffffffffffffffffffffffffffffff1681526020019081526020016000208190806001815401808255809150506001900390600052602060002001600090919091909150555050565b60008054906101000a900473ffffffffffffffffffffffffffffffffffffffff1681565b60006006600083815260200190815260200160002060009054906101000a900460ff169050919050565b806007600084815260200190815260200160002060006101000a81548160ff0219169083151502179055505050565b60006007600083815260200190815260200160002060009054906101000a900460ff169050919050565b60086020528160005260406000208181548110610e7d57600080fd5b90600052602060002001600091509150505481565b60005b600860008473ffffffffffffffffffffffffffffffffffffffff1673ffffffffffffffffffffffffffffffffffffffff168152602001908152602001600020805490508110156110c45781600860008573ffffffffffffffffffffffffffffffffffffffff1673ffffffffffffffffffffffffffffffffffffffff1681526020019081526020016000208281548110610f3157610f306114fc565b5b906000526020600020015414156110b157600860008473ffffffffffffffffffffffffffffffffffffffff1673ffffffffffffffffffffffffffffffffffffffff1681526020019081526020016000206001600860008673ffffffffffffffffffffffffffffffffffffffff1673ffffffffffffffffffffffffffffffffffffffff16815260200190815260200160002080549050610fd0919061155a565b81548110610fe157610fe06114fc565b5b9060005260206000200154600860008573ffffffffffffffffffffffffffffffffffffffff1673ffffffffffffffffffffffffffffffffffffffff168152602001908152602001600020828154811061103d5761103c6114fc565b5b9060005260206000200181905550600860008473ffffffffffffffffffffffffffffffffffffffff1673ffffffffffffffffffffffffffffffffffffffff16815260200190815260200160002080548061109a5761109961158e565b5b600190038181906000526020600020016000905590555b80806110bc906115bd565b915050610e95565b505050565b8060056000848152602001908152602001600020819055505050565b6000600360016003805490506110fb919061155a565b8154811061110c5761110b6114fc565b5b9060005260206000200154905090565b6003818154811061112c57600080fd5b906000526020600020016000915090505481565b60046020528060005260406000206000915054906101000a900473ffffffffffffffffffffffffffffffffffffffff1681565b600080fd5b600073ffffffffffffffffffffffffffffffffffffffff82169050919050565b60006111a382611178565b9050919050565b6111b381611198565b81146111be57600080fd5b50565b6000813590506111d0816111aa565b92915050565b6000819050919050565b6111e9816111d6565b81146111f457600080fd5b50565b600081359050611206816111e0565b92915050565b6000806040838503121561122357611222611173565b5b6000611231858286016111c1565b9250506020611242858286016111f7565b9150509250929050565b6000806040838503121561126357611262611173565b5b6000611271858286016111f7565b9250506020611282858286016111c1565b9150509250929050565b6000602082840312156112a2576112a1611173565b5b60006112b0848285016111f7565b91505092915050565b6112c281611198565b82525050565b60006020820190506112dd60008301846112b9565b92915050565b6112ec816111d6565b82525050565b600060208201905061130760008301846112e3565b92915050565b60006020828403121561132357611322611173565b5b6000611331848285016111c1565b91505092915050565b600081519050919050565b600082825260208201905092915050565b6000819050602082019050919050565b61136f816111d6565b82525050565b60006113818383611366565b60208301905092915050565b6000602082019050919050565b60006113a58261133a565b6113af8185611345565b93506113ba83611356565b8060005b838110156113eb5781516113d28882611375565b97506113dd8361138d565b9250506001810190506113be565b5085935050505092915050565b60006020820190508181036000830152611412818461139a565b905092915050565b60008115159050919050565b61142f8161141a565b82525050565b600060208201905061144a6000830184611426565b92915050565b6114598161141a565b811461146457600080fd5b50565b60008135905061147681611450565b92915050565b6000806040838503121561149357611492611173565b5b60006114a1858286016111f7565b92505060206114b285828601611467565b9150509250929050565b600080604083850312156114d3576114d2611173565b5b60006114e1858286016111f7565b92505060206114f2858286016111f7565b9150509250929050565b7f4e487b7100000000000000000000000000000000000000000000000000000000600052603260045260246000fd5b7f4e487b7100000000000000000000000000000000000000000000000000000000600052601160045260246000fd5b6000611565826111d6565b9150611570836111d6565b9250828210156115835761158261152b565b5b828203905092915050565b7f4e487b7100000000000000000000000000000000000000000000000000000000600052603160045260246000fd5b60006115c8826111d6565b91507fffffffffffffffffffffffffffffffffffffffffffffffffffffffffffffffff8214156115fb576115fa61152b565b5b60018201905091905056fea264697066735822122004e02988ccd22b169bb5da41112b3b67172c0d392beeeafa0320552ce352d96164736f6c63430008090033",
  "linkReferences": {},
  "deployedLinkReferences": {}
}